{
  "contractName": "MethSender",
  "abi": [
    {
      "inputs": [
        {
          "name": "_bridgeAtHome",
          "type": "address"
        },
        {
          "name": "_burrowBridge",
          "type": "address"
        },
        {
          "name": "_contract",
          "type": "address"
        }
      ],
      "payable": false,
      "stateMutability": "nonpayable",
      "type": "constructor"
    },
    {
      "constant": false,
      "inputs": [
        {
          "name": "_depostRecipient",
          "type": "address"
        }
      ],
      "name": "depositClearanceOnForeign",
      "outputs": [],
      "payable": false,
      "stateMutability": "nonpayable",
      "type": "function"
    },
    {
      "constant": false,
      "inputs": [
        {
          "name": "_i",
          "type": "uint256"
        }
      ],
      "name": "setValueOnForeign",
      "outputs": [],
      "payable": false,
      "stateMutability": "nonpayable",
      "type": "function"
    }
  ],
  "bytecode": "0x608060405234801561001057600080fd5b506040516060806106678339810180604052606081101561003057600080fd5b81019080805190602001909291908051906020019092919080519060200190929190505050826000806101000a81548173ffffffffffffffffffffffffffffffffffffffff021916908373ffffffffffffffffffffffffffffffffffffffff16021790555081600160006101000a81548173ffffffffffffffffffffffffffffffffffffffff021916908373ffffffffffffffffffffffffffffffffffffffff16021790555080600260006101000a81548173ffffffffffffffffffffffffffffffffffffffff021916908373ffffffffffffffffffffffffffffffffffffffff16021790555050505061053e806101296000396000f3fe608060405234801561001057600080fd5b50600436106100365760003560e01c806316d1c08c1461003b578063b3ea4c261461007f575b600080fd5b61007d6004803603602081101561005157600080fd5b81019080803573ffffffffffffffffffffffffffffffffffffffff1690602001909291905050506100ad565b005b6100ab6004803603602081101561009557600080fd5b8101908080359060200190929190505050610347565b005b600073ffffffffffffffffffffffffffffffffffffffff168173ffffffffffffffffffffffffffffffffffffffff161415610150576040517f08c379a000000000000000000000000000000000000000000000000000000000815260040180806020018281038252600f8152602001807f41646472657373206973206e756c6c000000000000000000000000000000000081525060200191505060405180910390fd5b6000638fe94fb260e01b905060608183604051602401808273ffffffffffffffffffffffffffffffffffffffff1673ffffffffffffffffffffffffffffffffffffffff168152602001915050604051602081830303815290604052907bffffffffffffffffffffffffffffffffffffffffffffffffffffffff19166020820180517bffffffffffffffffffffffffffffffffffffffffffffffffffffffff838183161783525050505090506000809054906101000a900473ffffffffffffffffffffffffffffffffffffffff1673ffffffffffffffffffffffffffffffffffffffff1663e8d0fd90600160009054906101000a900473ffffffffffffffffffffffffffffffffffffffff16836040518363ffffffff1660e01b8152600401808373ffffffffffffffffffffffffffffffffffffffff1673ffffffffffffffffffffffffffffffffffffffff16815260200180602001828103825283818151815260200191508051906020019080838360005b838110156102dd5780820151818401526020810190506102c2565b50505050905090810190601f16801561030a5780820380516001836020036101000a031916815260200191505b509350505050600060405180830381600087803b15801561032a57600080fd5b505af115801561033e573d6000803e3d6000fd5b50505050505050565b6000638fe94fb260e01b90506060818360405160240180828152602001915050604051602081830303815290604052907bffffffffffffffffffffffffffffffffffffffffffffffffffffffff19166020820180517bffffffffffffffffffffffffffffffffffffffffffffffffffffffff838183161783525050505090506000809054906101000a900473ffffffffffffffffffffffffffffffffffffffff1673ffffffffffffffffffffffffffffffffffffffff1663e8d0fd90600260009054906101000a900473ffffffffffffffffffffffffffffffffffffffff16836040518363ffffffff1660e01b8152600401808373ffffffffffffffffffffffffffffffffffffffff1673ffffffffffffffffffffffffffffffffffffffff16815260200180602001828103825283818151815260200191508051906020019080838360005b838110156104a857808201518184015260208101905061048d565b50505050905090810190601f1680156104d55780820380516001836020036101000a031916815260200191505b509350505050600060405180830381600087803b1580156104f557600080fd5b505af1158015610509573d6000803e3d6000fd5b5050505050505056fea165627a7a72305820a040481896820a0321c403104026ca51fd22c71bcee90694b15d198795b62e870029",
  "source": "pragma solidity >=0.4.25 <0.6.0;\n\nimport \"./MethBridge.sol\";\n\ncontract MethSender {\n\n    MethBridge methBridge;\n\n    // ForeignBridge foreignBridge; TODO: попробовать как интерфейс\n    // BurrowPart burrowPart; TODO: попробовать как интерфейс\n    address burrowBridge;\n    address burrowPart;\n\n    constructor(MethBridge _bridgeAtHome, address _burrowBridge, address _contract) public {\n\n        methBridge = _bridgeAtHome;\n        burrowBridge = _burrowBridge;\n        burrowPart = _contract;\n    }\n\n    function depositClearanceOnForeign(address _depostRecipient) public {\n        require(_depostRecipient != address(0), \"Address is null\");\n\n        // bytes4 methodSelector = \"ForeignBridge(0).withdrawFromDeposit.selector\";\n        bytes4 methodSelector = 0x8fe94fb2; // TODO: получить 4 байта сигнатуры у методов контракта в Burrow\n\n        bytes memory encodedData = abi.encodeWithSelector(methodSelector, _depostRecipient);\n        methBridge.requireToPassMessage(burrowBridge, encodedData);\n    }\n\n    function setValueOnForeign(uint256 _i) public {\n\n        // bytes4 methodSelector = \"ContractOnForeign(0).setValue.selector\";\n        bytes4 methodSelector = 0x8fe94fb2; // TODO: получить 4 байта сигнатуры у методов контракта в Burrow\n\n        bytes memory encodedData = abi.encodeWithSelector(methodSelector, _i);\n        methBridge.requireToPassMessage(burrowPart, encodedData);\n    }\n\n    // function setValueOnForeign(uint256 _i) public {\n    //     bytes4 methodSelector = ContractOnForeign(0).setValue.selector;\n    //     bytes memory encodedDataToPassToProxy = abi.encodeWithSelector(methodSelector, _i);\n\n    //     bytes4 proxyMethodSelector = ContractOnForeign(0).proxyMethod.selector;\n    //     bytes memory encodedData = abi.encodeWithSelector(proxyMethodSelector, encodedDataToPassToProxy);\n    //     bridge.requireToPassMessage(darkSide, encodedData, 100000, 1); //1 wei - gasprice in JS VM\n    // }\n    \n    // function fallbackHandler() public {\n    //     // Something to hanlde error appeared during execution of `setValue` on Foreing side\n    // }\n}\n",
  "sourcePath": "/home/ilyadruzh/Documents/AFT/gitlab/meth-bridge-hlf/dev/contracts/meth-sc/contracts/MethPart.sol",
  "compiler": {
    "name": "solc",
    "version": "0.5.8+commit.23d335f2.Emscripten.clang"
  },
  "schemaVersion": "3.0.11",
  "updatedAt": "2019-09-10T16:41:09.432Z",
  "devdoc": {
    "methods": {}
  },
  "userdoc": {
    "methods": {}
  }
}