{
  "contractName": "MethBridge",
  "abi": [
    {
      "constant": true,
      "inputs": [],
      "name": "foreignBridgeMode",
      "outputs": [
        {
          "name": "",
          "type": "bytes4"
        }
      ],
      "payable": false,
      "stateMutability": "view",
      "type": "function"
    },
    {
      "anonymous": false,
      "inputs": [
        {
          "indexed": false,
          "name": "contractSender",
          "type": "address"
        },
        {
          "indexed": false,
          "name": "_burrowContract",
          "type": "address"
        },
        {
          "indexed": false,
          "name": "encodedData",
          "type": "bytes"
        }
      ],
      "name": "RequestForSignature",
      "type": "event"
    },
    {
      "constant": false,
      "inputs": [],
      "name": "setSubsidizedModeForForeign",
      "outputs": [],
      "payable": false,
      "stateMutability": "nonpayable",
      "type": "function"
    },
    {
      "constant": false,
      "inputs": [],
      "name": "setDefrayalModeForForeign",
      "outputs": [],
      "payable": false,
      "stateMutability": "nonpayable",
      "type": "function"
    },
    {
      "constant": false,
      "inputs": [
        {
          "name": "_contract",
          "type": "address"
        },
        {
          "name": "_data",
          "type": "bytes"
        }
      ],
      "name": "requireToPassMessage",
      "outputs": [],
      "payable": false,
      "stateMutability": "nonpayable",
      "type": "function"
    }
  ],
  "bytecode": "0x608060405260405180807f414d422d646566726179616c2d6d6f6465000000000000000000000000000000815250601101905060405180910390206000806101000a81548163ffffffff021916908360e01c021790555034801561006257600080fd5b5061051d806100726000396000f3fe608060405234801561001057600080fd5b506004361061004c5760003560e01c8063959c05d114610051578063dd55eeb51461005b578063e8d0fd9014610065578063edb5e47b14610140575b600080fd5b61005961019c565b005b6100636101f0565b005b61013e6004803603604081101561007b57600080fd5b81019080803573ffffffffffffffffffffffffffffffffffffffff169060200190929190803590602001906401000000008111156100b857600080fd5b8201836020820111156100ca57600080fd5b803590602001918460018302840111640100000000831117156100ec57600080fd5b91908080601f016020809104026020016040519081016040528093929190818152602001838380828437600081840152601f19601f820116905080830192505050505050509192919290505050610244565b005b6101486104df565b60405180827bffffffffffffffffffffffffffffffffffffffffffffffffffffffff19167bffffffffffffffffffffffffffffffffffffffffffffffffffffffff1916815260200191505060405180910390f35b60405180807f414d422d737562736964697a65642d6d6f646500000000000000000000000000815250601301905060405180910390206000806101000a81548163ffffffff021916908360e01c0217905550565b60405180807f414d422d646566726179616c2d6d6f6465000000000000000000000000000000815250601101905060405180910390206000806101000a81548163ffffffff021916908360e01c0217905550565b60405180807f414d422d737562736964697a65642d6d6f646500000000000000000000000000815250601301905060405180910390207bffffffffffffffffffffffffffffffffffffffffffffffffffffffff19166000809054906101000a900460e01b7bffffffffffffffffffffffffffffffffffffffffffffffffffffffff191614156103d6577f6eac1cc596c2734573f0665c86057b090998b91b053f2136ec8bb79a6791b78b338383604051808473ffffffffffffffffffffffffffffffffffffffff1673ffffffffffffffffffffffffffffffffffffffff1681526020018373ffffffffffffffffffffffffffffffffffffffff1673ffffffffffffffffffffffffffffffffffffffff16815260200180602001828103825283818151815260200191508051906020019080838360005b8381101561039557808201518184015260208101905061037a565b50505050905090810190601f1680156103c25780820380516001836020036101000a031916815260200191505b5094505050505060405180910390a16104db565b7f6eac1cc596c2734573f0665c86057b090998b91b053f2136ec8bb79a6791b78b338383604051808473ffffffffffffffffffffffffffffffffffffffff1673ffffffffffffffffffffffffffffffffffffffff1681526020018373ffffffffffffffffffffffffffffffffffffffff1673ffffffffffffffffffffffffffffffffffffffff16815260200180602001828103825283818151815260200191508051906020019080838360005b8381101561049e578082015181840152602081019050610483565b50505050905090810190601f1680156104cb5780820380516001836020036101000a031916815260200191505b5094505050505060405180910390a15b5050565b6000809054906101000a900460e01b8156fea165627a7a7230582032a8d9f099ad2be81041972e93609a146f68ddfb230b44bd024dd3e2156275d90029",
  "source": "pragma solidity >=0.4.25 <0.6.0;\n\ncontract MethBridge {\n\n    bytes4 constant SUBSIDIZED_MODE = bytes4(keccak256(\"AMB-subsidized-mode\"));\n    bytes4 constant DEFRAYAL_MODE = bytes4(keccak256(\"AMB-defrayal-mode\"));\n    bytes4 public foreignBridgeMode = DEFRAYAL_MODE;\n\n    function setSubsidizedModeForForeign() public {\n        foreignBridgeMode = SUBSIDIZED_MODE;\n    }\n\n    function setDefrayalModeForForeign() public {\n        foreignBridgeMode = DEFRAYAL_MODE;\n    }\n\n    event RequestForSignature(address contractSender, address _burrowContract, bytes encodedData);\n\n    function requireToPassMessage(address _contract, bytes memory _data) public {\n        if (foreignBridgeMode == SUBSIDIZED_MODE) {\n            emit RequestForSignature(msg.sender, _contract, _data);\n        }\n        else {\n            emit RequestForSignature(msg.sender, _contract, _data);\n        }\n    }\n}\n",
  "sourcePath": "/home/ilyadruzh/Documents/AFT/gitlab/meth-bridge-hlf/dev/contracts/meth-sc/contracts/MethBridge.sol",
  "compiler": {
    "name": "solc",
    "version": "0.5.8+commit.23d335f2.Emscripten.clang"
  },
  "schemaVersion": "3.0.11",
  "updatedAt": "2019-09-10T16:41:09.429Z",
  "devdoc": {
    "methods": {}
  },
  "userdoc": {
    "methods": {}
  }
}