{
  "contractName": "MethMain",
  "abi": [
    {
      "constant": true,
      "inputs": [],
      "name": "i",
      "outputs": [
        {
          "name": "",
          "type": "uint256"
        }
      ],
      "payable": false,
      "stateMutability": "view",
      "type": "function"
    },
    {
      "anonymous": false,
      "inputs": [
        {
          "indexed": false,
          "name": "currentContract",
          "type": "address"
        },
        {
          "indexed": false,
          "name": "value",
          "type": "uint256"
        }
      ],
      "name": "ChangeValue",
      "type": "event"
    },
    {
      "anonymous": false,
      "inputs": [
        {
          "indexed": false,
          "name": "contractSender",
          "type": "address"
        },
        {
          "indexed": false,
          "name": "_burrowContract",
          "type": "address"
        },
        {
          "indexed": false,
          "name": "encodedData",
          "type": "bytes"
        }
      ],
      "name": "RequestForChangeValue",
      "type": "event"
    },
    {
      "constant": false,
      "inputs": [
        {
          "name": "_i",
          "type": "uint256"
        }
      ],
      "name": "setValue",
      "outputs": [],
      "payable": false,
      "stateMutability": "nonpayable",
      "type": "function"
    },
    {
      "constant": true,
      "inputs": [],
      "name": "getValue",
      "outputs": [
        {
          "name": "",
          "type": "uint256"
        }
      ],
      "payable": false,
      "stateMutability": "view",
      "type": "function"
    },
    {
      "constant": false,
      "inputs": [
        {
          "name": "burrowPart",
          "type": "address"
        },
        {
          "name": "_i",
          "type": "uint256"
        }
      ],
      "name": "setValueInBurrow",
      "outputs": [],
      "payable": false,
      "stateMutability": "nonpayable",
      "type": "function"
    },
    {
      "constant": false,
      "inputs": [
        {
          "name": "burrowPart",
          "type": "address"
        }
      ],
      "name": "getValueInBurrow",
      "outputs": [
        {
          "name": "",
          "type": "uint256"
        }
      ],
      "payable": false,
      "stateMutability": "nonpayable",
      "type": "function"
    }
  ],
  "bytecode": "0x608060405234801561001057600080fd5b50610533806100206000396000f3fe608060405234801561001057600080fd5b50600436106100575760003560e01c8063209652551461005c57806352b8da431461007a57806355241077146100c8578063e271a976146100f6578063e5aa3d581461014e575b600080fd5b61006461016c565b6040518082815260200191505060405180910390f35b6100c66004803603604081101561009057600080fd5b81019080803573ffffffffffffffffffffffffffffffffffffffff16906020019092919080359060200190929190505050610175565b005b6100f4600480360360208110156100de57600080fd5b8101908080359060200190929190505050610305565b005b6101386004803603602081101561010c57600080fd5b81019080803573ffffffffffffffffffffffffffffffffffffffff16906020019092919050505061037c565b6040518082815260200191505060405180910390f35b610156610501565b6040518082815260200191505060405180910390f35b60008054905090565b6000635524107760e01b9050816000819055506060818360405160240180828152602001915050604051602081830303815290604052907bffffffffffffffffffffffffffffffffffffffffffffffffffffffff19166020820180517bffffffffffffffffffffffffffffffffffffffffffffffffffffffff838183161783525050505090507f3691b6628ee21baef43a73bf9357dac3c0ef934ce5969d382b38c3b3f8960262338583604051808473ffffffffffffffffffffffffffffffffffffffff1673ffffffffffffffffffffffffffffffffffffffff1681526020018373ffffffffffffffffffffffffffffffffffffffff1673ffffffffffffffffffffffffffffffffffffffff16815260200180602001828103825283818151815260200191508051906020019080838360005b838110156102c35780820151818401526020810190506102a8565b50505050905090810190601f1680156102f05780820380516001836020036101000a031916815260200191505b5094505050505060405180910390a150505050565b806000819055507f023d5a47bf292dfef6ea670d4beeb8d4f56ccd2306cc63fa0e27cffff353c2b130600054604051808373ffffffffffffffffffffffffffffffffffffffff1673ffffffffffffffffffffffffffffffffffffffff1681526020018281526020019250505060405180910390a150565b600080638fe94fb260e01b9050606081604051602401604051602081830303815290604052907bffffffffffffffffffffffffffffffffffffffffffffffffffffffff19166020820180517bffffffffffffffffffffffffffffffffffffffffffffffffffffffff838183161783525050505090507f3691b6628ee21baef43a73bf9357dac3c0ef934ce5969d382b38c3b3f8960262338583604051808473ffffffffffffffffffffffffffffffffffffffff1673ffffffffffffffffffffffffffffffffffffffff1681526020018373ffffffffffffffffffffffffffffffffffffffff1673ffffffffffffffffffffffffffffffffffffffff16815260200180602001828103825283818151815260200191508051906020019080838360005b838110156104b957808201518184015260208101905061049e565b50505050905090810190601f1680156104e65780820380516001836020036101000a031916815260200191505b5094505050505060405180910390a160005492505050919050565b6000548156fea165627a7a723058205a85968d08e6bce7d8c205536f831e3434c43a52e620ade16d1fbca94376b2780029",
  "source": "pragma solidity >=0.4.25 <0.6.0;\n\ncontract MethMain {\n\n    // ForeignBridge foreignBridge; TODO: попробовать как интерфейс\n    // BurrowPart burrowPart; TODO: попробовать как интерфейс\n\n    uint256 public i;\n\n    event ChangeValue(address currentContract, uint256 value);\n    event RequestForChangeValue(address contractSender, address _burrowContract, bytes encodedData);\n\n    function setValue(uint256 _i) public {\n\n        i = _i;\n\n        emit ChangeValue(address(this), i);\n    }\n\n    function getValue() public view returns(uint256) {\n        return i;\n    }\n\n    function setValueInBurrow(address burrowPart, uint256 _i) public {\n\n        /// @dev 4byte сигнатуры метода, который вызываем\n        // bytes4 methodSelector = \"ContractOnForeign(0).setValue.selector\";\n        bytes4 methodSelector = 0x55241077; // TODO: получить 4 байта сигнатуры у методов контракта в Burrow\n\n        /// @dev данные, которые передаем в метод\n        i = _i;\n\n        /// @dev кодируем данные для передачи в другую сеть\n        bytes memory encodedData = abi.encodeWithSelector(methodSelector, _i);\n\n        /// @dev вызываем событие, которое будет отловлено мостом\n        emit RequestForChangeValue(msg.sender, burrowPart, encodedData);\n    }\n\n    function getValueInBurrow(address burrowPart) public returns(uint256) {\n\n        /// @dev 4byte сигнатуры метода, который вызываем\n        // bytes4 methodSelector = \"ContractOnForeign(0).setValue.selector\";\n        bytes4 methodSelector = 0x8fe94fb2; // TODO: получить 4 байта сигнатуры у методов контракта в Burrow\n\n        bytes memory encodedData = abi.encodeWithSelector(methodSelector);\n        emit RequestForChangeValue(msg.sender, burrowPart, encodedData);\n\n        return i;\n    }\n\n}\n",
  "sourcePath": "/home/ilyadruzh/Documents/AFT/gitlab/meth-bridge-hlf/dev/contracts/meth-sc/contracts/MethMain.sol",
  "compiler": {
    "name": "solc",
    "version": "0.5.8+commit.23d335f2.Emscripten.clang"
  },
  "schemaVersion": "3.0.11",
  "updatedAt": "2019-09-11T08:54:55.122Z",
  "devdoc": {
    "methods": {}
  },
  "userdoc": {
    "methods": {}
  }
}