{
  "contractName": "HashedTimelock",
  "abi": [
    {
      "anonymous": false,
      "inputs": [
        {
          "indexed": true,
          "name": "contractId",
          "type": "bytes32"
        },
        {
          "indexed": true,
          "name": "sender",
          "type": "address"
        },
        {
          "indexed": true,
          "name": "receiver",
          "type": "address"
        },
        {
          "indexed": false,
          "name": "amount",
          "type": "uint256"
        },
        {
          "indexed": false,
          "name": "hashlock",
          "type": "bytes32"
        },
        {
          "indexed": false,
          "name": "timelock",
          "type": "uint256"
        }
      ],
      "name": "LogHTLCNew",
      "type": "event"
    },
    {
      "anonymous": false,
      "inputs": [
        {
          "indexed": true,
          "name": "contractId",
          "type": "bytes32"
        }
      ],
      "name": "LogHTLCWithdraw",
      "type": "event"
    },
    {
      "anonymous": false,
      "inputs": [
        {
          "indexed": true,
          "name": "contractId",
          "type": "bytes32"
        }
      ],
      "name": "LogHTLCRefund",
      "type": "event"
    },
    {
      "constant": false,
      "inputs": [
        {
          "name": "_receiver",
          "type": "address"
        },
        {
          "name": "_hashlock",
          "type": "bytes32"
        },
        {
          "name": "_timelock",
          "type": "uint256"
        }
      ],
      "name": "newContract",
      "outputs": [
        {
          "name": "contractId",
          "type": "bytes32"
        }
      ],
      "payable": true,
      "stateMutability": "payable",
      "type": "function"
    },
    {
      "constant": false,
      "inputs": [
        {
          "name": "_contractId",
          "type": "bytes32"
        },
        {
          "name": "_preimage",
          "type": "bytes32"
        }
      ],
      "name": "withdraw",
      "outputs": [
        {
          "name": "",
          "type": "bool"
        }
      ],
      "payable": false,
      "stateMutability": "nonpayable",
      "type": "function"
    },
    {
      "constant": false,
      "inputs": [
        {
          "name": "_contractId",
          "type": "bytes32"
        }
      ],
      "name": "refund",
      "outputs": [
        {
          "name": "",
          "type": "bool"
        }
      ],
      "payable": false,
      "stateMutability": "nonpayable",
      "type": "function"
    },
    {
      "constant": true,
      "inputs": [
        {
          "name": "_contractId",
          "type": "bytes32"
        }
      ],
      "name": "getContract",
      "outputs": [
        {
          "name": "sender",
          "type": "address"
        },
        {
          "name": "receiver",
          "type": "address"
        },
        {
          "name": "amount",
          "type": "uint256"
        },
        {
          "name": "hashlock",
          "type": "bytes32"
        },
        {
          "name": "timelock",
          "type": "uint256"
        },
        {
          "name": "withdrawn",
          "type": "bool"
        },
        {
          "name": "refunded",
          "type": "bool"
        },
        {
          "name": "preimage",
          "type": "bytes32"
        }
      ],
      "payable": false,
      "stateMutability": "view",
      "type": "function"
    }
  ],
  "bytecode": "0x608060405234801561001057600080fd5b506110e1806100206000396000f3fe60806040526004361061003f5760003560e01c8063335ef5bd1461004457806363615149146100b05780637249fbb61461010d578063e16c7d9814610160575b600080fd5b61009a6004803603606081101561005a57600080fd5b81019080803573ffffffffffffffffffffffffffffffffffffffff1690602001909291908035906020019092919080359060200190929190505050610240565b6040518082815260200191505060405180910390f35b3480156100bc57600080fd5b506100f3600480360360408110156100d357600080fd5b810190808035906020019092919080359060200190929190505050610658565b604051808215151515815260200191505060405180910390f35b34801561011957600080fd5b506101466004803603602081101561013057600080fd5b8101908080359060200190929190505050610ae5565b604051808215151515815260200191505060405180910390f35b34801561016c57600080fd5b506101996004803603602081101561018357600080fd5b8101908080359060200190929190505050610ebb565b604051808973ffffffffffffffffffffffffffffffffffffffff1673ffffffffffffffffffffffffffffffffffffffff1681526020018873ffffffffffffffffffffffffffffffffffffffff1673ffffffffffffffffffffffffffffffffffffffff16815260200187815260200186815260200185815260200184151515158152602001831515151581526020018281526020019850505050505050505060405180910390f35b60008034116102b7576040517f08c379a00000000000000000000000000000000000000000000000000000000081526004018080602001828103825260158152602001807f6d73672e76616c7565206d757374206265203e2030000000000000000000000081525060200191505060405180910390fd5b81428111610310576040517f08c379a000000000000000000000000000000000000000000000000000000000815260040180806020018281038252602381526020018061103f6023913960400191505060405180910390fd5b60023386348787604051602001808673ffffffffffffffffffffffffffffffffffffffff1673ffffffffffffffffffffffffffffffffffffffff1660601b81526014018573ffffffffffffffffffffffffffffffffffffffff1673ffffffffffffffffffffffffffffffffffffffff1660601b8152601401848152602001838152602001828152602001955050505050506040516020818303038152906040526040518082805190602001908083835b602083106103e357805182526020820191506020810190506020830392506103c0565b6001836020036101000a038019825116818451168082178552505050505050905001915050602060405180830381855afa158015610425573d6000803e3d6000fd5b5050506040513d602081101561043a57600080fd5b8101908080519060200190929190505050915061045682610fd0565b1561046057600080fd5b6040518061010001604052803373ffffffffffffffffffffffffffffffffffffffff1681526020018673ffffffffffffffffffffffffffffffffffffffff1681526020013481526020018581526020018481526020016000151581526020016000151581526020016000801b81525060008084815260200190815260200160002060008201518160000160006101000a81548173ffffffffffffffffffffffffffffffffffffffff021916908373ffffffffffffffffffffffffffffffffffffffff16021790555060208201518160010160006101000a81548173ffffffffffffffffffffffffffffffffffffffff021916908373ffffffffffffffffffffffffffffffffffffffff16021790555060408201518160020155606082015181600301556080820151816004015560a08201518160050160006101000a81548160ff02191690831515021790555060c08201518160050160016101000a81548160ff02191690831515021790555060e082015181600601559050508473ffffffffffffffffffffffffffffffffffffffff163373ffffffffffffffffffffffffffffffffffffffff16837f329a8316ed9c3b2299597538371c2944c5026574e803b1ec31d6113e1cd67bde34888860405180848152602001838152602001828152602001935050505060405180910390a4509392505050565b60008261066481610fd0565b6106d6576040517f08c379a00000000000000000000000000000000000000000000000000000000081526004018080602001828103825260198152602001807f636f6e7472616374496420646f6573206e6f742065786973740000000000000081525060200191505060405180910390fd5b8383600281604051602001808281526020019150506040516020818303038152906040526040518082805190602001908083835b6020831061072d578051825260208201915060208101905060208303925061070a565b6001836020036101000a038019825116818451168082178552505050505050905001915050602060405180830381855afa15801561076f573d6000803e3d6000fd5b5050506040513d602081101561078457600080fd5b8101908080519060200190929190505050600080848152602001908152602001600020600301541461081e576040517f08c379a000000000000000000000000000000000000000000000000000000000815260040180806020018281038252601c8152602001807f686173686c6f636b206861736820646f6573206e6f74206d617463680000000081525060200191505060405180910390fd5b853373ffffffffffffffffffffffffffffffffffffffff1660008083815260200190815260200160002060010160009054906101000a900473ffffffffffffffffffffffffffffffffffffffff1673ffffffffffffffffffffffffffffffffffffffff16146108f5576040517f08c379a000000000000000000000000000000000000000000000000000000000815260040180806020018281038252601a8152602001807f776974686472617761626c653a206e6f7420726563656976657200000000000081525060200191505060405180910390fd5b6000151560008083815260200190815260200160002060050160009054906101000a900460ff16151514610991576040517f08c379a000000000000000000000000000000000000000000000000000000000815260040180806020018281038252601f8152602001807f776974686472617761626c653a20616c72656164792077697468647261776e0081525060200191505060405180910390fd5b4260008083815260200190815260200160002060040154116109fe576040517f08c379a00000000000000000000000000000000000000000000000000000000081526004018080602001828103825260318152602001806110856031913960400191505060405180910390fd5b6000806000898152602001908152602001600020905086816006018190555060018160050160006101000a81548160ff0219169083151502179055508060010160009054906101000a900473ffffffffffffffffffffffffffffffffffffffff1673ffffffffffffffffffffffffffffffffffffffff166108fc82600201549081150290604051600060405180830381858888f19350505050158015610aa8573d6000803e3d6000fd5b50877fd6fd4c8e45bf0c70693141c7ce46451b6a6a28ac8386fca2ba914044e0e2391660405160405180910390a260019550505050505092915050565b600081610af181610fd0565b610b63576040517f08c379a00000000000000000000000000000000000000000000000000000000081526004018080602001828103825260198152602001807f636f6e7472616374496420646f6573206e6f742065786973740000000000000081525060200191505060405180910390fd5b823373ffffffffffffffffffffffffffffffffffffffff1660008083815260200190815260200160002060000160009054906101000a900473ffffffffffffffffffffffffffffffffffffffff1673ffffffffffffffffffffffffffffffffffffffff1614610c3a576040517f08c379a00000000000000000000000000000000000000000000000000000000081526004018080602001828103825260168152602001807f726566756e6461626c653a206e6f742073656e6465720000000000000000000081525060200191505060405180910390fd5b6000151560008083815260200190815260200160002060050160019054906101000a900460ff16151514610cd6576040517f08c379a000000000000000000000000000000000000000000000000000000000815260040180806020018281038252601c8152602001807f726566756e6461626c653a20616c726561647920726566756e6465640000000081525060200191505060405180910390fd5b6000151560008083815260200190815260200160002060050160009054906101000a900460ff16151514610d72576040517f08c379a000000000000000000000000000000000000000000000000000000000815260040180806020018281038252601d8152602001807f726566756e6461626c653a20616c72656164792077697468647261776e00000081525060200191505060405180910390fd5b42600080838152602001908152602001600020600401541115610de0576040517f08c379a00000000000000000000000000000000000000000000000000000000081526004018080602001828103825260238152602001806110626023913960400191505060405180910390fd5b6000806000868152602001908152602001600020905060018160050160016101000a81548160ff0219169083151502179055508060000160009054906101000a900473ffffffffffffffffffffffffffffffffffffffff1673ffffffffffffffffffffffffffffffffffffffff166108fc82600201549081150290604051600060405180830381858888f19350505050158015610e81573d6000803e3d6000fd5b50847f989b3a845197c9aec15f8982bbb30b5da714050e662a7a287bb1a94c81e2e70e60405160405180910390a260019350505050919050565b60008060008060008060008060001515610ed48a610fd0565b15151415610f15576000806000806000806000808797508696508595508460001b94508393508060001b905097509750975097509750975097509750610fc5565b60008060008b815260200190815260200160002090508060000160009054906101000a900473ffffffffffffffffffffffffffffffffffffffff168160010160009054906101000a900473ffffffffffffffffffffffffffffffffffffffff168260020154836003015484600401548560050160009054906101000a900460ff168660050160019054906101000a900460ff16876006015487975086965098509850985098509850985098509850505b919395975091939597565b60008073ffffffffffffffffffffffffffffffffffffffff1660008084815260200190815260200160002060000160009054906101000a900473ffffffffffffffffffffffffffffffffffffffff1673ffffffffffffffffffffffffffffffffffffffff161415905091905056fe74696d656c6f636b2074696d65206d75737420626520696e2074686520667574757265726566756e6461626c653a2074696d656c6f636b206e6f742079657420706173736564776974686472617761626c653a2074696d656c6f636b2074696d65206d75737420626520696e2074686520667574757265a165627a7a723058203229b7f5650549caf862fe5edd41a1fed83ab609d690ca9724cbb3757ef883fb0029",
  "source": "pragma solidity ^0.5.0;\n/**\n * @title Hashed Timelock контракты.\n *\n * Protocol:\n *\n *  1) newContract(receiver, hashlock, timelock) - отправитель вызывает это, чтобы создать\n *      новый HTL-контракт и получить обратно 32 байта contract_id\n *  2) withdraw(contractId, preimage) - получатель, зная прообраз хэш блокировки\n *     может забрать средства\n *  3) refund() - когда временной замок пройдет и если никто не вывел средства, отправитель \n *     или создатель HTL-контракта может вернуть себе \n*/\n\ncontract HashedTimelock {\n\n    // Событие вызываемое при создании нового HTL-контракта\n    event LogHTLCNew(\n        bytes32 indexed contractId,\n        address indexed sender,\n        address indexed receiver,\n        uint amount,\n        bytes32 hashlock,\n        uint timelock\n    );\n\n    // Событие вызываемое при выводе средств\n    event LogHTLCWithdraw(bytes32 indexed contractId);\n\n    // Событие вызываемое при возврате средств\n    event LogHTLCRefund(bytes32 indexed contractId);\n\n    // Основной HTL-контракт\n    struct LockContract {\n        address payable sender; // отправитель\n        address payable receiver; // получатель\n        uint amount; // поличество денег\n        bytes32 hashlock; // sha-2 sha256 хэш замок\n        uint timelock; // Время UNIX в секундах - контракт блокируется до этого времени\n        bool withdrawn; // логиечское поле - были ли средства выведены\n        bool refunded; // логиечское поле - были ли средства возвращены\n        bytes32 preimage; // прообраз чего-то\n    }\n\n    modifier fundsSent() {\n        require(msg.value > 0, \"msg.value must be > 0\");\n        _;\n    }\n\n    modifier futureTimelock(uint _time) {\n        // only requirement is the timelock time is after the last blocktime (now).\n        // probably want something a bit further in the future then this.\n        // but this is still a useful sanity check:\n        require(_time > now, \"timelock time must be in the future\");\n        _;\n    }\n\n// Проверка контракта на наличие\n    modifier contractExists(bytes32 _contractId) {\n        require(haveContract(_contractId), \"contractId does not exist\");\n        _;\n    }\n\n// ХЗ\n    modifier hashlockMatches(bytes32 _contractId, bytes32 _x) {\n        require(\n            contracts[_contractId].hashlock == sha256(abi.encodePacked(_x)),\n            \"hashlock hash does not match\"\n        );\n        _;\n    }\n\n// Проверка, можно ли вывести средства\n    modifier withdrawable(bytes32 _contractId) {\n        require(contracts[_contractId].receiver == msg.sender, \"withdrawable: not receiver\");\n        require(contracts[_contractId].withdrawn == false, \"withdrawable: already withdrawn\");\n        require(contracts[_contractId].timelock > now, \"withdrawable: timelock time must be in the future\");\n        _;\n    }\n\n// проврка , можно ли вернуть деньги\n    modifier refundable(bytes32 _contractId) {\n        require(contracts[_contractId].sender == msg.sender, \"refundable: not sender\");\n        require(contracts[_contractId].refunded == false, \"refundable: already refunded\");\n        require(contracts[_contractId].withdrawn == false, \"refundable: already withdrawn\");\n        require(contracts[_contractId].timelock <= now, \"refundable: timelock not yet passed\");\n        _;\n    }\n\n// список размещенных HTL-контрактов\n    mapping (bytes32 => LockContract) contracts;\n\n    /**\n     * @dev Отправитель задает новый htl-контракт с депозитом в ETH и \n     * предоставляет получателю условия для блокировки.\n     *\n     * @param _receiver Получатель ETH.\n     * @param _hashlock A sha-2 sha256 хэш замок\n     * @param _timelock Эпоха UNIX в секундах, до которого средства блокируеются. Возврат сресдств может быть сделан после этого времени\n     * @return contractId Id нововго контракта. Это необзодимос для последующих вызовов\n     */\n    function newContract(address payable _receiver, bytes32 _hashlock, uint _timelock)\n        external\n        payable\n        fundsSent\n        futureTimelock(_timelock)\n        returns (bytes32 contractId)\n    {\n        contractId = sha256(\n            abi.encodePacked(\n                msg.sender,\n                _receiver,\n                msg.value,\n                _hashlock,\n                _timelock\n            )\n        );\n\n        // отменить добавление если этот контракт уже существует с этими же параметрами\n        // отправитель должен изменить одтн из параметров, чтобы создаиьб новый контарт\n        if (haveContract(contractId))\n            revert();\n\n        contracts[contractId] = LockContract(\n            msg.sender,\n            _receiver,\n            msg.value,\n            _hashlock,\n            _timelock,\n            false,\n            false,\n            0x0\n        );\n\n        emit LogHTLCNew(\n            contractId,\n            msg.sender,\n            _receiver,\n            msg.value,\n            _hashlock,\n            _timelock\n        );\n    }\n\n    /**\n     * @dev Вызывается получателем, когда он узнает прообразо хэш замка. \n     * это отправит средства на его адресс\n     *\n     * @param _contractId Id HTLC.\n     * @param _preimage sha256(_preimage) должен быть эквивантен хэш замку контпакта \n     * @return true есои всё норм\n     */\n    function withdraw(bytes32 _contractId, bytes32 _preimage)\n        external\n        contractExists(_contractId)\n        hashlockMatches(_contractId, _preimage)\n        withdrawable(_contractId)\n        returns (bool)\n    {\n        LockContract storage c = contracts[_contractId];\n        c.preimage = _preimage;\n        c.withdrawn = true;\n        c.receiver.transfer(c.amount);\n        emit LogHTLCWithdraw(_contractId);\n        return true;\n    }\n\n    /**\n     * @dev Called by the sender if there was no withdraw AND the time lock has\n     * expired. This will refund the contract amount.\n     *\n     * @param _contractId Id of HTLC to refund from.\n     * @return bool true on success\n     */\n    function refund(bytes32 _contractId)\n        external\n        contractExists(_contractId)\n        refundable(_contractId)\n        returns (bool)\n    {\n        LockContract storage c = contracts[_contractId];\n        c.refunded = true;\n        c.sender.transfer(c.amount);\n        emit LogHTLCRefund(_contractId);\n        return true;\n    }\n\n    /**\n     * @dev Get contract details.\n     * @param _contractId HTLC contract id\n     * @return All parameters in struct LockContract for _contractId HTLC\n     */\n    function getContract(bytes32 _contractId)\n        public\n        view\n        returns (\n            address sender,\n            address receiver,\n            uint amount,\n            bytes32 hashlock,\n            uint timelock,\n            bool withdrawn,\n            bool refunded,\n            bytes32 preimage\n        )\n    {\n        if (haveContract(_contractId) == false)\n            return (address(0), address(0), 0, 0, 0, false, false, 0);\n        LockContract storage c = contracts[_contractId];\n        return (c.sender, c.receiver, c.amount, c.hashlock, c.timelock,\n                c.withdrawn, c.refunded, c.preimage);\n    }\n\n    /**\n     * @dev Is there a contract with id _contractId.\n     * @param _contractId Id into contracts mapping.\n     */\n    function haveContract(bytes32 _contractId)\n        internal\n        view\n        returns (bool exists)\n    {\n        exists = (contracts[_contractId].sender != address(0));\n    }\n\n}\n",
  "sourcePath": "/home/ilyadruzh/Documents/AFT/github/mhlf/dev/sc/evmcc-bridge/contracts/HashedTimelock.sol",
  "compiler": {
    "name": "solc",
    "version": "0.5.8+commit.23d335f2.Emscripten.clang"
  },
  "schemaVersion": "3.0.11",
  "updatedAt": "2019-10-03T14:22:31.996Z",
  "devdoc": {
    "methods": {
      "getContract(bytes32)": {
        "details": "Get contract details.",
        "params": {
          "_contractId": "HTLC contract id"
        },
        "return": "All parameters in struct LockContract for _contractId HTLC"
      },
      "newContract(address,bytes32,uint256)": {
        "details": "Отправитель задает новый htl-контракт с депозитом в ETH и  предоставляет получателю условия для блокировки.",
        "params": {
          "_hashlock": "A sha-2 sha256 хэш замок",
          "_receiver": "Получатель ETH.",
          "_timelock": "Эпоха UNIX в секундах, до которого средства блокируеются. Возврат сресдств может быть сделан после этого времени"
        },
        "return": "contractId Id нововго контракта. Это необзодимос для последующих вызовов"
      },
      "refund(bytes32)": {
        "details": "Called by the sender if there was no withdraw AND the time lock has expired. This will refund the contract amount.",
        "params": {
          "_contractId": "Id of HTLC to refund from."
        },
        "return": "bool true on success"
      },
      "withdraw(bytes32,bytes32)": {
        "details": "Вызывается получателем, когда он узнает прообразо хэш замка.  это отправит средства на его адресс",
        "params": {
          "_contractId": "Id HTLC.",
          "_preimage": "sha256(_preimage) должен быть эквивантен хэш замку контпакта "
        },
        "return": "true есои всё норм"
      }
    },
    "title": "Hashed Timelock контракты. * Protocol: *  1) newContract(receiver, hashlock, timelock) - отправитель вызывает это, чтобы создать     новый HTL-контракт и получить обратно 32 байта contract_id 2) withdraw(contractId, preimage) - получатель, зная прообраз хэш блокировки    может забрать средства 3) refund() - когда временной замок пройдет и если никто не вывел средства, отправитель     или создатель HTL-контракта может вернуть себе "
  },
  "userdoc": {
    "methods": {}
  }
}